:100000000C9446000C9465000C9465000C946500FB
:100010000C9465000C9465000C9465000C946500CC
:100020000C9465000C9465000C9465000C946500BC
:100030000C9465000C9465000C9465000C946500AC
:100040000C9465000C9465000C9465000C9465009C
:100050000C9465000C9465000C9465000C9465008C
:100060000C9465000C9465000C9465000C9465007C
:100070000C9465000C9465000C9465000C9465006C
:100080000C9465000C9465000C94650011241FBE4F
:10009000CFEFD0E4DEBFCDBF11E0A0E0B1E0EAE9F0
:1000A000F5E000E00BBF02C007900D92A231B1074E
:1000B000D9F721E0A2E1B1E001C01D92AA31B20757
:1000C000E1F70E948E020C94CB020C940000CF93B7
:1000D000DF93CDB7DEB781E00E948E000000DF9194
:1000E000CF910895CF93DF93CDB7DEB784E690E04C
:1000F0000E94320188E30E948E0086E00E948E00FA
:100100008FE00E948E0081E00E948E008AE090E0E5
:100110000E9432010000DF91CF910895CF93DF93C9
:100120001F92CDB7DEB789838BE290E02BE230E0FF
:10013000F90120812F7BFC01208388E290E0298156
:10014000FC0120838BE290E02BE230E0F90120817A
:100150002068FC01208300008BE290E02BE230E07D
:10016000F90120812F77FC01208382E090E00E943A
:10017000320100000F90DF91CF910895CF93DF936C
:100180001F92CDB7DEB789838BE290E02BE230E09F
:10019000F90120812064FC01208388E290E029811C
:1001A000FC0120838BE290E02BE230E0F90120811A
:1001B0002068FC01208300008BE290E02BE230E01D
:1001C000F90120812F77FC01208381E090E00E94DB
:1001D000320100000F90DF91CF910895CF93DF930C
:1001E00000D000D0CDB7DEB78A837C836B830E94BA
:1001F00067008A81898311C0898191E0980F998372
:100200000E941B018B819C819C012F5F3F4F3C838F
:100210002B83FC0180810E94BE008B819C81FC01AC
:100220008081882349F700000F900F900F900F9066
:10023000DF91CF910895CF93DF931F92CDB7DEB7B3
:1002400089838981813128F4898181580E948E00B7
:1002500004C0898181550E948E0000000F90DF91BB
:10026000CF910895CF93DF9300D000D000D0CDB7C9
:10027000DEB79E838D831A82198213C01C821B8273
:1002800006C000008B819C8101969C838B838B81AF
:100290009C8187309340ACF389819A8101969A833F
:1002A000898329813A818D819E812817390734F30A
:1002B000000026960FB6F894DEBF0FBECDBFDF91CB
:1002C000CF910895CF93DF9300D01F92CDB7DEB7C3
:1002D00089837B836A8389818A3031F48A819B8117
:1002E000BC018DE00E94620180EC90E0FC01808105
:1002F000882F90E080729927892BB1F386EC90E0EB
:100300002981FC01208380E090E00F900F900F90F6
:10031000DF91CF910895CF93DF9300D0CDB7DEB7B3
:1003200080E290E0FC018081882F90E08170992725
:1003300021E0892B09F020E0298380E290E0FC0194
:100340008081809582708A83809118019091190133
:100350008230910509F444C08330910528F4009758
:1003600049F00197B1F144C08330910559F10497E8
:1003700041F03EC084E090E0909319018093180111
:1003800037C08981882351F08A81882339F083E03E
:1003900090E0909319018093180129C089818823E6
:1003A00039F081E090E090931901809318011FC00B
:1003B0008A818823E1F082E090E090931901809394
:1003C000180115C084E090E0909319018093180102
:1003D0000FC084E090E0909319018093180108C049
:1003E00084E090E0909319018093180101C000000F
:1003F000809118019091190182309105C1F08330EC
:10040000910528F4009701F1019739F024C0833059
:100410009105B9F00497D1F01EC080911201893086
:10042000B8F4809112018F5F8093120111C0809106
:100430001201882379F0809112018150809312017A
:1004400009C01092120107C0000005C0000003C0DF
:10045000000001C0000000000F900F90DF91CF91CD
:100460000895CF93DF93CDB7DEB780910E019091C1
:100470000F01A0911001B09111018093140190938C
:100480001501A0931601B09317010000DF91CF91E1
:100490000895CF93DF93CDB7DEB781E890E0FC01FC
:1004A00010820000DF91CF910895CF93DF93CDB7F5
:1004B000DEB781E0809313010000DF91CF910895B2
:1004C000CF93DF9300D000D0CDB7DEB769837A83B6
:1004D0008B839C8389819A81AB81BC8180930E013F
:1004E00090930F01A0931001B093110180910E0120
:1004F00090910F01A0911001B0911101809314010E
:1005000090931501A0931601B093170100000F906E
:100510000F900F900F90DF91CF910895CF93DF93BD
:10052000CDB7DEB781E290E0FC01108282E290E07C
:100530002FEFFC01208387E290E02FEFFC01208366
:1005400088E290E0FC0110828AE290E02FEFFC014B
:1005500020838BE290E0FC01108268EE73E080E083
:1005600090E00E9460020E9472000E9431020E948C
:100570008B010E94670082E00E941B0180911201A2
:10058000805D0E94BE000000809113018823E1F38A
:0A05900010921301ECCFF894FFCF96
:10059A0000000002000000006201000000000100EB
:0205AA0000004F
:00000001FF
